:100000000C945E000C9486000C9486000C94860080
:100010000C9486000C9486000C9486000C94860048
:100020000C9486000C9486000C9486000C94860038
:100030000C9486000C94B4060C9486000C948600F4
:100040000C94DB060C9486000C9418030C944A0361
:100050000C9486000C9486000C9486000C94860008
:100060000C9486000C94860000000007000201003A
:100070000003040600000000000000000102040864
:100080001020408001020408102001020408102002
:10009000040404040404040402020202020203032E
:1000A0000303030300000000250028002B000000CC
:1000B0000000240027002A00FF017A0311241FBE3C
:1000C000CFEFD8E0DEBFCDBF11E0A0E0B1E0E2E2CB
:1000D000F6E102C005900D92A834B107D9F723E0EC
:1000E000A8E4B1E001C01D92A232B207E1F710E02E
:1000F000CEE5D0E004C02197FE010E94090BCC356B
:10010000D107C9F70E94A7030C94FF070C940000C5
:10011000FC0110821182128213824483558366830C
:100120007783389688539F4F1082118212821382F0
:10013000158214823696E817F907B1F708950F93E0
:100140001F93FC0176E0679FE00DF11D11242087CD
:10015000318742875387158704871F910F91089530
:10016000EF92FF920F931F93CF93DF93EC0148819F
:1001700059816A817B818C819D81AE81BF814817C5
:1001800059076A077B0720F0188219821A821B829E
:1001900088819981AA81BB810196A11DB11D8883A7
:1001A0009983AA83BB838E01085F1F4F7E0188EC71
:1001B000E80EF11C0E151F0510F5D80114968D914F
:1001C0009C911597892BC1F02D913D914D915C919A
:1001D000688179818A819B810E94B00A672B682B94
:1001E000692B51F4F80184819581DC01ED91FC913A
:1001F0000190F081E02D09950A5F1F4FDBCFDF9161
:10020000CF911F910F91FF90EF9008950F931F933F
:10021000CF93DF93EC018C01005C1F4F8A819B819F
:10022000009749F01B821A82DC01ED91FC9101904C
:10023000F081E02D09952296C017D10779F7DF915B
:10024000CF911F910F910895FC012CE031E0219393
:1002500031938E5B9F4F11921192E817F907D9F7EE
:100260000895860F911D860F911DFC0153834283D3
:100270000895DC011296ED91FC9113978281938190
:10028000A481B5810196A11DB11D82839383A483AE
:10029000B583089588E591E00C94B0000F931F9307
:1002A000CF93DF93CDB7DEB7A0970FB6F894DEBF3C
:1002B0000FBECDBFFC0185818F9384818F93838195
:1002C0008F9382818F938EE091E09F938F931F9203
:1002D0008FE18F938E010F5F1F4F1F930F930E942B
:1002E000020841E060E082E692E00E949E05B801CB
:1002F00082E692E00E9486020FB6F894DEBF0FBE3F
:10030000CDBFA0960FB6F894DEBF0FBECDBFDF9174
:10031000CF911F910F91089542E551E060E080E296
:1003200092E00C9431014AE451E061E080E292E015
:100330000C94310140915401509155016091560146
:10034000709157012AE030E087E792E00C940603B1
:100350000F931F9326E040E855E260E070E087E7E6
:1003600092E00E947B0420E042E060E182E692E0BD
:100370000E94D40582E692E00E9497050EE411E007
:100380002DE030E040E050E060E088E591E00E9440
:100390009F000CE411E024EF31E040E050E061E028
:1003A00088E591E00E949F0008E411E024EF31E02D
:1003B00040E050E062E088E591E00E949F00E1E8C3
:1003C000F0E080E180831092800081E0809316034A
:1003D00020EA3FE0309318032093170330938700FF
:1003E0002093860091E190832AE431E03093150355
:1003F0002093140380936F001F910F910895CF9263
:10040000EF920F9387E0C82E96E0E92E05E024E0F6
:1004100049E068E082E692E00E94880680E292E08D
:100420000E94240140E553EC60E070E088E591E033
:100430000E948800E2E5F1E086E191E0918380830B
:100440001282138214821582AEE4B1E08CE191E055
:1004500011969C938E931396FC93EE93129782E2DF
:1004600091E090934D0180934C0188E291E090934C
:100470004B0180934A018EE291E090934901809371
:1004800048010F91EF90CF90089580E292E00C9494
:100490000601CF92DF92EF92FF920F931F93CF93BB
:1004A000DF936C01EB017B01E40EF51E00E010E030
:1004B000CE15DF0561F06991D601ED91FC910190B7
:1004C000F081E02DC6010995080F191FF1CFC80171
:1004D000DF91CF911F910F91FF90EF90DF90CF9020
:1004E00008956115710579F0FB0101900020E9F78D
:1004F0003197AF01461B570BDC01ED91FC91028057
:10050000F381E02D099480E090E008950C9471024D
:10051000DC01ED91FC910190F081E02D09940F93A5
:100520001F93CF93DF93EC016DE00E9488028C0152
:100530006AE0CE010E948802800F911FDF91CF9167
:100540001F910F9108958F929F92AF92BF92CF9279
:10055000DF92EF92FF920F931F93CF93DF93CDB76C
:10056000DEB7A1970FB6F894DEBF0FBECDBF6C010A
:10057000142FE52FCB01022F19A2223008F40AE034
:100580007E0121E2E20EF11C802E912CA12CB12CD7
:10059000612F7E2FA50194010E94B00A029F1019BD
:1005A000112481E0E81AF1081A3014F4105D01C03A
:1005B000195CF7011083122FE32FCA01232B242B80
:1005C000252B31F7B701C6010E947102A1960FB623
:1005D000F894DEBF0FBECDBFDF91CF911F910F9179
:1005E000FF90EF90DF90CF90BF90AF909F908F9053
:1005F00008952115310541F4DC01ED91FC91019044
:10060000F081E02D642F09940C94A3020F931F93A3
:10061000CF93DF93EC010E94F9028C01CE010E947E
:100620008F02800F911FDF91CF911F910F9108953D
:100630001F920F920FB60F9211242F938F939F93B7
:10064000EF93FF93E0918702F09188028081E0911F
:100650008D02F0918E0282FD12C0908180919002F5
:100660008F5F8F7320919102821751F0E091900279
:10067000F0E0E958FD4F958F8093900201C0808192
:10068000FF91EF919F918F912F910F900FBE0F903F
:100690001F9018951F920F920FB60F9211242F934F
:1006A0003F934F935F936F937F938F939F93AF93FA
:1006B000BF93EF93FF9387E792E00E94F003FF91CF
:1006C000EF91BF91AF919F918F917F916F915F91CA
:1006D0004F913F912F910F900FBE0F901F90189543
:1006E00087E792E00E94B40321E0892B09F420E01F
:1006F000822F0895E7E7F2E01382128288EE93E0FA
:10070000A0E0B0E084839583A683B78384E391E07F
:100710009183808385EC90E09587848784EC90E0DA
:100720009787868780EC90E0918B808B81EC90E0BE
:10073000938B828B82EC90E0958B848B86EC90E09F
:10074000978B868B118E128E138E148E08950E94B5
:100750002F070E94A801C2EED3E00E944502209715
:10076000E1F30E94E203F9CFFC01918D228D892FE4
:1007700090E0805C9F4F821B91098F7399270895A9
:10078000FC01918D828D981731F0828DE80FF11D5B
:10079000858D90E008958FEF9FEF0895FC01918D76
:1007A000828D981761F0828DDF01A80FB11D5D96D3
:1007B0008C91928D9F5F9F73928F90E008958FEF41
:1007C0009FEF089580E793E0892B49F080E090E067
:1007D000892B29F00E94700381110C940000089568
:1007E000FC01848DDF01A80FB11DA35ABF4F2C91CE
:1007F000848D90E001968F739927848FA689B7899D
:100800002C93A089B1898C9180648C93938D848D75
:10081000981306C00288F389E02D80818F7D808344
:100820000895CF93DF93EC01888D8823C9F0EA897E
:10083000FB89808185FD05C0A889B9898C9186FDD9
:100840000FC00FB607FCF5CF808185FFF2CFA889D6
:10085000B9898C9185FFEDCFCE010E94F003E7CFDF
:10086000DF91CF910895EF92FF920F931F93CF9353
:10087000DF93EC019B8D8C8D981305C0E889F98975
:10088000808185FD27C0F62E0B8D10E00F5F1F4F76
:100890000F731127E02E8C8DE8120CC00FB607FCE9
:1008A000FACFE889F989808185FFF5CFCE010E94D2
:1008B000F003F1CF8B8DFE01E80FF11DE35AFF4FDE
:1008C000F0820B8FEA89FB8980818062808381E0DE
:1008D000888F08C0EE89FF896083E889F989808163
:1008E0008064808381E090E0DF91CF911F910F9130
:1008F000FF90EF900895CF92DF92EF92FF921F93B7
:10090000CF93DF93EC016A017B01122FE889F9890B
:1009100082E080834115514E61057105B1F060E0C0
:1009200079E08DE390E0A70196010E94B00ADA0118
:10093000C9010197A109B109B695A7959795879522
:10094000AC01411580E15807A8F0E889F9891082C7
:1009500060E874E88EE190E0A70196010E94B00A79
:10096000BA01A9014150510961097109769567954C
:1009700057954795EC85FD855083EE85FF8540832F
:10098000188EEC89FD891083EA89FB89808180615A
:100990008083EA89FB89808188608083EA89FB897A
:1009A000808180688083EA89FB8980818F7D808354
:1009B000DF91CF911F91FF90EF90DF90CF9008953E
:1009C000CF93DF93EC0160E08E810E94CF0781E03E
:1009D00090E00E94250761E08E810E94CF0781E0B0
:1009E00090E00E94250760E08E810E94CF0784E698
:1009F00090E0DF91CF910C942507AF92BF92CF92F8
:100A0000DF92EF92FF920F931F93CF93DF935C01DE
:100A10007C0187E0E80EF11CC0E0D0E0062F10E07A
:100A2000670161E0F70181917F010E949307B8019E
:100A30000C2E02C0759567950A94E2F76170F60175
:100A400080810E94CF072196C430D10549F7C501A6
:100A5000DF91CF911F910F91FF90EF90DF90CF909A
:100A6000BF90AF900C94E004AF92BF92CF92DF9210
:100A7000EF92FF920F931F93CF93DF935C017C0162
:100A800087E0E80EF11CC0E0D0E0062F10E067011F
:100A900061E0F70181917F010E949307B8010C2E5C
:100AA00002C0759567950A94E2F76170F60180813E
:100AB0000E94CF072196C830D10549F7C501DF91C3
:100AC000CF911F910F91FF90EF90DF90CF90BF904B
:100AD000AF900C94E0041F93CF93DF93EC01162F9B
:100AE000642F8C810E94CF078D818F3F19F060E0C9
:100AF0000E94CF078F85612F84FF06C0CE01DF9152
:100B0000CF911F910C94340570E084E07595679542
:100B10008A95E1F7CE010E94FD04612FCE01DF919D
:100B2000CF911F910C94FD0440E00C946B0561E0A3
:100B30000E94940580ED97E00C942507CF93DF93F6
:100B4000CDB7DEB728970FB6F894DEBF0FBECDBF86
:100B50009C0188E0E0E0F1E0DE01119601900D9249
:100B60008A95E1F7F9018389481710F04FEF480F94
:100B7000FE013196E40FF11DE40FF11D9081690F24
:100B80006068C90128960FB6F894DEBF0FBECDBFCE
:100B9000DF91CF910C949405FC016089262F24608D
:100BA000208B6C600C949405CF93DF93EC01423062
:100BB00018F08F8588608F874B8B1C8A222329F041
:100BC000413019F48F8584608F8780E593EC0E9413
:100BD000250760E08C810E94CF0760E08E810E9433
:100BE000CF078D818F3F19F060E00E94CF076F859E
:100BF00064FD1DC063E0CE010E94FD0484E991E123
:100C00000E94250763E0CE010E94FD0484E991E182
:100C10000E94250763E0CE010E94FD0486E990E072
:100C20000E94250762E0CE010E94FD0416C06062AA
:100C3000CE010E94940584E991E10E9425076F8509
:100C40006062CE010E94940586E990E00E9425072B
:100C50006F856062CE010E9494056F856062CE014F
:100C60000E94940584E0888BCE010E94CC05CE01C1
:100C70000E94970582E0898B66E0CE01DF91CF91DB
:100C80000C9494056F927F928F92AF92CF92EF92D5
:100C90000F931F93CF93DF93CDB7DEB73C01162F91
:100CA000842F5D854E853F859889F3018483258354
:100CB0000683E782C086A18682865387448735876C
:100CC000968761E00E949307F30185818F3F19F0B9
:100CD00061E00E94930761E0F30186810E9493071F
:100CE000112319F0F301178603C080E1F301878710
:100CF00020E041E060E1C301DF91CF911F910F91AE
:100D0000EF90CF90AF908F907F906F900C94D40520
:100D10008F92AF92CF92EF920F93DC0113961C92B9
:100D20001E921297E4E4F1E0ED93FC931F921F9260
:100D30001F921F928C2CAE2CC02EE22E042F2FEF70
:100D4000462F61E00E9442060F900F900F900F9087
:100D50000F91EF90CF90AF908F90089541E00E9457
:100D60006B0581E090E008951F920F920FB60F92ED
:100D700011242F933F934F935F936F937F938F93A0
:100D80009F93AF93BF93EF93FF93E0911403F09180
:100D900015030995FF91EF91BF91AF919F918F91AD
:100DA0007F916F915F914F913F912F910F900FBE67
:100DB0000F901F9018951F920F920FB60F9211244B
:100DC0002F933F938F939F93AF93BF9380911A0379
:100DD00090911B03A0911C03B0911D033091190346
:100DE00023E0230F2D3720F40196A11DB11D05C06E
:100DF00026E8230F0296A11DB11D209319038093AD
:100E00001A0390931B03A0931C03B0931D038091BE
:100E10001E0390911F03A0912003B091210301961E
:100E2000A11DB11D80931E0390931F03A093200367
:100E3000B0932103BF91AF919F918F913F912F91DB
:100E40000F900FBE0F901F901895019739F0880FE3
:100E5000991F880F991F02970197F1F708957894C9
:100E600084B5826084BD84B5816084BD85B58260AF
:100E700085BD85B5816085BDEEE6F0E0808181604D
:100E80008083E1E8F0E0108280818260808380814D
:100E900081608083E0E8F0E0808181608083E1EB25
:100EA000F0E0808184608083E0EBF0E0808181600D
:100EB0008083EAE7F0E080818460808380818260C3
:100EC00080838081816080838081806880831092AC
:100ED000C1000895833081F028F4813099F0823088
:100EE000A1F008958630A9F08730B9F08430D1F4AC
:100EF000809180008F7D03C0809180008F778093E8
:100F00008000089584B58F7702C084B58F7D84BD3D
:100F100008958091B0008F7703C08091B0008F7DDD
:100F20008093B0000895CF93DF9390E0FC01E458E4
:100F3000FF4F2491FC01E057FF4F8491882361F11A
:100F400090E0880F991FFC01E255FF4FC591D491A5
:100F5000FC01EC55FF4FA591B491611109C09FB7F9
:100F6000F8948881209582238883EC912E230BC0EE
:100F7000623061F49FB7F8943881822F8095832383
:100F80008883EC912E2B2C939FBF06C08FB7F894CB
:100F9000E8812E2B28838FBFDF91CF9108951F9377
:100FA000CF93DF93282F30E0F901E859FF4F849168
:100FB000F901E458FF4FD491F901E057FF4FC49174
:100FC000CC23C9F0162F81110E946A07EC2FF0E0A4
:100FD000EE0FFF1FEC55FF4FA591B4918FB7F8941A
:100FE000111105C09C91ED2FE095E92302C0EC9111
:100FF000ED2BEC938FBFDF91CF911F910895F89463
:101000000C940F0BAEE0B0E0E8E0F8E00C94E00ADE
:101010000D891E898F89988D26E02C831A83098378
:1010200097FF02C080E090E801979E838D83AE0118
:10103000455E5F4F698D7A8DCE0101960E94320820
:101040004D815E8157FD0AC02F81388542175307B5
:101050000CF49A01F801E20FF31F10822E96E4E0DF
:101060000C94FC0AACE0B0E0E8E3F8E00C94D20A9F
:101070007C016B018A01FC0117821682838181FF4A
:10108000BDC1CE0101964C01F7019381F60193FD9C
:10109000859193FF81916F01882309F4ABC185325B
:1010A00039F493FD859193FF81916F01853229F485
:1010B000B70190E00E941A0AE7CF512C312C20E0B2
:1010C0002032A0F48B3269F030F4803259F0833250
:1010D00069F420612CC08D3239F0803339F42160FD
:1010E00026C02260246023C0286021C027FD27C0BD
:1010F00030ED380F3A3078F426FF06C0FAE05F9EF4
:10110000300D1124532E13C08AE0389E300D112467
:10111000332E20620CC08E3221F426FD6BC1206478
:1011200006C08C3611F4206802C0883641F4F601FE
:1011300093FD859193FF81916F018111C1CF982F0C
:101140009F7D9554933028F40C5F1F4FFFE3F98384
:101150000DC0833631F0833771F0833509F05BC001
:1011600022C0F801808189830E5F1F4F442443947D
:10117000512C540115C03801F2E06F0E711CF801BA
:10118000A080B18026FF03C0652D70E002C06FEF24
:101190007FEFC5012C870E940F0A2C0183012C854B
:1011A0002F77222E17C03801F2E06F0E711CF80164
:1011B000A080B18026FF03C0652D70E002C06FEFF4
:1011C0007FEFC5012C870E94040A2C012C85206822
:1011D000222E830123FC1BC0832D90E04816590664
:1011E000B0F4B70180E290E00E941A0A3A94F4CF7A
:1011F000F50127FC859127FE81915F01B70190E001
:101200000E941A0A31103A94F1E04F1A5108411421
:10121000510471F7E5C0843611F0893639F5F801CB
:1012200027FF07C060817181828193810C5F1F4F0E
:1012300008C060817181072E000C880B990B0E5F2E
:101240001F4F2F76722E97FF09C09095809570954D
:1012500061957F4F8F4F9F4F2068722E2AE030E0BC
:10126000A4010E94520AA82EA81844C0853729F468
:101270002F7EB22E2AE030E025C0F22FF97FBF2E5C
:101280008F36C1F018F4883579F0B4C0803719F082
:10129000883721F0AFC02F2F2061B22EB4FE0DC0D1
:1012A0008B2D8460B82E09C024FF0AC09F2F966042
:1012B000B92E06C028E030E005C020E130E002C0D1
:1012C00020E132E0F801B7FE07C0608171818281C0
:1012D00093810C5F1F4F06C06081718180E090E0B8
:1012E0000E5F1F4FA4010E94520AA82EA818FB2DC2
:1012F000FF777F2E76FE0BC0372D3E7FA51450F46E
:1013000074FE0AC072FC08C0372D3E7E05C0BA2CA0
:10131000372D03C0BA2C01C0B52C34FF0DC0FE011F
:10132000EA0DF11D8081803311F4397E09C032FF4E
:1013300006C0B394B39404C0832F867809F0B394A5
:1013400033FD13C030FF06C05A2CB31418F4530CED
:101350005B18B32CB31468F4B70180E290E03C87CB
:101360000E941A0AB3943C85F5CFB31410F43B18CD
:1013700001C0312C34FF12C0B70180E390E03C87FC
:101380000E941A0A3C8532FF17C031FD03C088E76E
:1013900090E002C088E590E0B7010CC0832F86780A
:1013A00059F031FF02C08BE201C080E237FD8DE2CF
:1013B000B70190E00E941A0AA51438F4B70180E33F
:1013C00090E00E941A0A5A94F7CFAA94F401EA0D09
:1013D000F11D8081B70190E00E941A0AA110F5CF9B
:1013E000332009F451CEB70180E290E00E941A0A3E
:1013F0003A94F6CFF7018681978102C08FEF9FEF75
:101400002C96E2E10C94EE0AFC01059061507040CC
:101410000110D8F7809590958E0F9F1F0895FC01BD
:101420006150704001900110D8F7809590958E0F13
:101430009F1F08950F931F93CF93DF93FB01238189
:1014400021FD03C08FEF9FEF28C022FF16C0468109
:101450005781248135814217530744F4A081B1811B
:101460009D012F5F3F4F318320838C9326813781ED
:101470002F5F3F4F3783268310C0EB01092F182FB2
:101480000084F185E02D0995892BE1F68E819F81FD
:1014900001969F838E83812F902FDF91CF911F9193
:1014A0000F910895FA01AA27283051F1203181F1D6
:1014B000E8946F936E7F6E5F7F4F8F4F9F4FAF4F5C
:1014C000B1E03ED0B4E03CD0670F781F891F9A1F6F
:1014D000A11D680F791F8A1F911DA11D6A0F711D23
:1014E000811D911DA11D20D009F468943F912AE02F
:1014F000269F11243019305D3193DEF6CF01089517
:10150000462F4770405D4193B3E00FD0C9F7F6CF47
:10151000462F4F70405D4A3318F0495D31FD40520F
:10152000419302D0A9F7EACFB4E0A69597958795A5
:1015300077956795BA95C9F7009761057105089584
:101540009B01AC010A2E0694579547953795279530
:10155000BA95C9F7620F731F841F951FA01D0895C8
:10156000A1E21A2EAA1BBB1BFD010DC0AA1FBB1FA7
:10157000EE1FFF1FA217B307E407F50720F0A21B19
:10158000B30BE40BF50B661F771F881F991F1A9486
:1015900069F760957095809590959B01AC01BD01B0
:1015A000CF0108952F923F924F925F926F927F9258
:1015B0008F929F92AF92BF92CF92DF92EF92FF9263
:1015C0000F931F93CF93DF93CDB7DEB7CA1BDB0B0F
:1015D0000FB6F894DEBF0FBECDBF09942A883988B4
:1015E00048885F846E847D848C849B84AA84B984BB
:1015F000C884DF80EE80FD800C811B81AA81B981C7
:10160000CE0FD11D0FB6F894DEBF0FBECDBFED01DA
:101610000895EE0FFF1F0590F491E02D0994F894C2
:02162000FFCFFA
:1016220000004000140054000000000006012536AE
:101632006400000000004E010000000039010000BB
:1016420000008C01000000009A01000000009301DC
:101652000000000033044902B403CE03C0031104A6
:0816620000000000AE06490281
:00000001FF
